:1000000012C02CC02BC012C629C028C027C026C0D1
:1000100025C0C4C523C022C021C020C01FC01EC02F
:100020001DC068C01BC011241FBECFE5D4E0DEBFD9
:10003000CDBF10E0A0E6B0E0EAE8FFE002C0059026
:100040000D92AC3AB107D9F710E0ACEAB0E001C0CC
:100050001D92A43DB107E1F7F6D595C7D1CF90E049
:1000600040EC53E013C0939A22E330E0FA01319759
:10007000F1F721503040D1F7939824E630E0FA01AF
:100080003197F1F721503040D1F79F5F981758F31F
:100090009398089520EC33E004C0F9013197F1F70B
:1000A00001970097D1F7089582B986B78F7D86BFF3
:1000B00086B7856486BF8FEF8093B800789480E020
:1000C00090E0FC01E754FF4F1082019688309105C3
:1000D000C1F71092C2001092C1001092C400109299
:1000E000C3001092C6001092C5001092C800109272
:1000F000C70008951F920F920FB60F9211242F93ED
:100100008F939F93EF93FF93A8951092800021E027
:100110002093AC0081B190E0887F90708038910589
:10012000A1F0813891052CF48036910509F068C062
:1001300008C0883A9105B1F1883B910509F060C08B
:1001400031C08091B60081604BC093B18091B60000
:1001500082608093B6008091B8008F3F41F4983060
:1001600018F49093B8003EC01092B8003BC0809144
:10017000B800E091B800F0E0E453FF4F9083209383
:10018000AC008091B8008F5F8093B8008091B80078
:10019000883040F18FEF8093B80085E886BF2093C8
:1001A000AC0033C08091B60084608093B60080912B
:1001B000B8008F3F11F41092B800E091B800F0E061
:1001C000E754FF4F808183B98091B8008F5F80939F
:1001D000B8008091B800873040F48091B600886004
:1001E0008093B60085EC86BF10C08091B600806118
:1001F0008093B60085E886BF8FEF8093B80005C076
:1002000085EC86BF81E080938000FF91EF919F9104
:100210008F912F910F900FBE0F901F90189520EC8B
:1002200033E004C0F9013197F1F701970097D1F756
:100230000895892B11F0C79A0895C7980895C79813
:1002400020E030E045E387FF02C0C59A01C0C598B1
:10025000C79A942F9A95F1F7C7982F5F3F4F283090
:10026000310511F0880FEFCF0895C598C69A82EC3A
:1002700091E00197F1F7C69882E48A95F1F7089525
:10028000EF92FF920F931F93182FF62EE42E80E328
:1002900095E70197F1F780E3D2DFE7DF80E197E2AE
:1002A0000197F1F780E3CBDFE0DF8AE18A95F1F790
:1002B00080E3C5DFDADF85ED8A95F1F7812FBFDFB7
:1002C000D4DF88E0BCDFD1DF81E0B9DFCEDF00EA38
:1002D0001FE0C8010197F1F78F2DB1DFC6DFC8011C
:1002E0000197F1F78E2DABDFC0DF80E49CE9019729
:1002F000F1F71F910F91FF90EF900895C59AC69A5C
:1003000082EC91E00197F1F7C69882E48A95F1F7C3
:10031000089595DFF3DF0895CF93DF93EC0101C0DB
:10032000F8DF89918823E1F7DF91CF910895DF937A
:10033000CF9300D0CDB7DEB71A826AE0B4D5905D16
:100340009983CE010196E8DF0F900F90CF91DF9156
:100350000895DF93CF9300D00F92CDB7DEB764E658
:10036000A2D5292F1B82892F6AE09DD5905D9A83A3
:10037000822F99D598D5905D9983CE010196CCDFD7
:100380000F900F900F90CF91DF910895DF93CF934F
:10039000CDB7DEB728970FB6F894DEBF0FBECDBF3E
:1003A000382F292F1886FE013796832F922F6AE067
:1003B00070E085D5805D8083832F922F6AE070E0A6
:1003C0007ED5362F272F3197EC17FD0771F7CE0119
:1003D0000196A2DF28960FB6F894DEBF0FBECDBF00
:1003E000CF91DF910895DF93CF9300D000D0CDB7A8
:1003F000DEB7282F1C826AE056D5905D9B83822F42
:1004000052D5282F50D5905D9A83822F4CD54BD54D
:10041000905D9983CE0101967FDF0F900F900F9032
:100420000F90CF91DF910895C69A82EC91E00197E9
:10043000F1F7C698089582E002DF17DF0895860F6E
:10044000FEDE13DF08951F93182F04C084E1F7DE4A
:100450000CDF11501123D1F71F9108951F93182F0E
:1004600004C080E1ECDE01DF11501123D1F71F91B0
:100470000895662311F4805801C08054E0DEF5DE53
:1004800008950F931F9381E0DADEEFDE00EC13E0B6
:10049000C8010197F1F7C8010197F1F782E0CFDEBB
:1004A000E4DEC8010197F1F7C8010197F1F71F9148
:1004B0000F9108950F931F93082F80E0602FD9DFCD
:1004C00010E080E226DF1F5F1431D9F780E0602F53
:1004D000D0DF80EC93E0FC013197F1F70197F1F761
:1004E0001F910F910895DF92EF92FF920F931F9348
:1004F000CF93DF937B018C01FA011286EA0189E038
:10050000D82EB701C8012AE030E040E050E0FED428
:10051000605D6987B701C8012AE030E040E050E043
:10052000F5D479018A01DA9421978FEFD81649F72B
:10053000DF91CF911F910F91FF90EF90DF90089581
:10054000DF92EF92FF920F931F93CF93DF937B0184
:100550008C01FA01138697FF0EC08DE280831095FF
:100560000095F094E094E11CF11C011D111DEF01B8
:100570009AE0D92E03C080E28083F9CFC801B70189
:100580002AE030E040E050E0E3D4605D6A87C801D3
:10059000B7012AE030E040E050E0DAD4C901DA01E6
:1005A0007C018D01DA942197DD2041F7DF91CF9115
:1005B0001F910F91FF90EF90DF9008959C01FB0138
:1005C000178297FF07C08DE28083309521953F4FBA
:1005D00046E003C080E28083FBCFC9016AE070E09F
:1005E00082D4805D8683C9016AE070E07CD49B017F
:1005F00041503197442389F70895DF93CF9300D07A
:100600000F92CDB7DEB7282F8F708A3018F4805D37
:100610008A8304C06AE047D49F5B9A83822F8295C5
:100620008F708A3018F4805D898304C06AE03BD4FF
:100630009F5B99831B82CE0101966EDE0F900F9017
:100640000F90CF91DF910895CF92DF92EF92FF92BA
:100650000F931F93CF93DF937C01162FD42EC22EBE
:10066000FC0180818D3209F080E253DE00E012C08F
:10067000013031F0F701E10FF11D8081803339F055
:10068000F701E10FF11D808144DE01E002C080E24C
:1006900040DE1150112361F78EE23BDECD2DD0E01C
:1006A000CC0DD11D05C0EE0DFF1D808132DE1F5F18
:1006B000E12FF0E0EC17FD07B4F3DF91CF911F912C
:1006C0000F91FF90EF90DF90CF900895DF93CF933D
:1006D00000D000D000D0CDB7DEB7282F362F1E8235
:1006E0006AE0E1D3905D9D832A3030F0822FDBD326
:1006F000DAD3905D9C8302C080E38C838AE38B8392
:10070000832F6AE0D0D3905D9A833A3030F0832F04
:10071000CAD3C9D3905D998302C080E38983CE0197
:100720000196FADD26960FB6F894DEBF0FBECDBF58
:10073000CF91DF910895DF93CF93CDB7DEB72E979A
:100740000FB6F894DEBF0FBECDBFFE013196ADE906
:10075000B0E09EE00D9001929150E1F7E82FF0E0BB
:100760003197EE0FFF1FEC0FFD1F81819281D4DDC9
:100770002E960FB6F894DEBF0FBECDBFCF91DF919E
:100780000895AF92BF92DF92EF92FF920F931F9363
:10079000DF93CF93CDB7DEB760970FB6F894DEBF87
:1007A0000FBECDBF48E0D42E7E010894E11CF11CA1
:1007B000D701ED2D1D92EA95E9F78C01000F111F6D
:1007C000000F111F080F191F80E061E052DEC80101
:1007D000DDDD5801C801B701F1DEFE013996DF0108
:1007E0001D92DA94E9F7188A8FED8F878F818E87B3
:1007F0008EE28D878E818C87BFEF0D391B0734F019
:10080000043611053CF480E28B8710C0FCEF0931FF
:100810001F074CF028EEA21623E0B20624F48D81C7
:100820008B8780E203C08D818B878C818A87898149
:100830008987CE01099670DD60960FB6F894DEBF09
:100840000FBECDBFCF91DF911F910F91FF90EF9021
:10085000DF90BF90AF900895EF92FF921F93DF93C8
:10086000CF93CDB7DEB72E970FB6F894DEBF0FBE8D
:10087000CDBF17E0FE013196DF01212F1D922A9591
:10088000E9F77C01EE0CFF1CEE0CFF1CE80EF91ED4
:10089000C701BF0193DEFE013896DF011D921A9554
:1008A000E9F71E868FED8D878F818C878EE28B878F
:1008B0008E818A87BDE9EB16BFEFFB0634F024E694
:1008C000E216F10414F480E201C08D8189878981E8
:1008D0008887CE01089620DD80EC93E0FC013197FB
:1008E000F1F70197F1F72E960FB6F894DEBF0FBE21
:1008F000CDBFCF91DF911F91FF90EF900895FF92B0
:100900000F931F93DF93CF93CDB7DEB72F970FB61B
:10091000F894DEBF0FBECDBF8C01000F111F000F7A
:10092000111F080F191F085C104017FF03C07DE25C
:10093000F72E02C060E2F62EFE01389688E0DF0155
:100940001D928A95E9F7C801BF0138DEFE01319694
:1009500087E0DF011D928A95E9F71F828FED8E8374
:100960008E858D838EE28C838D858B830D591F4FF1
:10097000073C110520F4FA8280E2898303C08C854C
:100980008A83F982CE010196C7DC80EC93E0FC01FA
:100990003197F1F70197F1F72F960FB6F894DEBF74
:1009A0000FBECDBFCF91DF911F910F91FF900895A2
:1009B000DF93CF9300D00F92CDB7DEB795E896B90D
:1009C00087B93E9A369A3699FECF369A3699FECF37
:1009D00074B165B184B195B13798880F880F90E0F4
:1009E0000F900F900F90CF91DF91089595E896B9F1
:1009F00087B9369A3699FECF089597B1982B97B953
:100A000040E020E030E0369A3699FECF84B195B1CF
:100A1000280F391F4F5F4430B1F73695279536952B
:100A20002795C90108953798089595E896B987B92B
:100A30003E9A369A3699FECF40E020E030E0369A72
:100A40003699FECF84B195B1280F391F4F5F4430DE
:100A5000B1F737983695279536952795C9010895AA
:100A6000282F30E0220F331F60E040EC53E00FC02E
:100A7000909ACA010197F1F7CA010197F1F790988E
:100A8000CA010197F1F7CA010197F1F76F5F862F4D
:100A900090E08217930764F390980895863210F4DB
:100AA00081E008958E3210F482E00895863310F4C8
:100AB00083E00895883410F484E008958F3510F4AD
:100AC00085E00895833710F486E008958B3910F49B
:100AD00087E008958A3B10F488E008958D3C10F477
:100AE00089E00895813E10F48AE008958B3E10F469
:100AF00080E00895853F10F08FEF08958CE0089511
:100B0000889A899A8A9A8B9A8C9A8D9A8E9A8F9AB9
:100B1000909A88EC90E020EC33E0F9013197F1F7FE
:100B20000197D9F79098B898C09AB998C19ABD9A88
:100B3000BE9ABF9AA498AC9AA598AD9AA098A1988D
:100B4000A298A3981092B7008091B7008860809314
:100B5000B700089520EC33E004C0F9013197F1F7B4
:100B600001970097D1F7089583B7836083BF88B753
:100B7000816088BF89B7816089BF12BE089595B52D
:100B8000936095BD95B5986095BD98B7906498BFF2
:100B900099B7906899BF14BC83BD08951F920F92B6
:100BA0000FB60F9211242F933F934F935F936F9340
:100BB0007F938F939F93AF93BF93EF93FF93809116
:100BC000B4009091B50001969093B5008093B40065
:100BD0008091AE009091AF0001969093AF0080930A
:100BE000AE008091AE009091AF00039771F48091B8
:100BF0008000882331F080917D00C1DF9699979A1B
:100C0000959A1092AF001092AE00FF91EF91BF91B4
:100C1000AF919F918F917F916F915F914F913F9194
:100C20002F910F900FBE0F901F9018951F920F924B
:100C30000FB60F92112415BC979895980F900FBE80
:100C40000F901F9018958F929F92AF92BF92CF9264
:100C5000DF92EF92FF920F931F93CF93DF9388E180
:100C60000FB6F89481BD11BC0FBE84B7877F84BFD7
:100C7000A89581B5886181BD11BC42DF88E366E03B
:100C80004CE0FEDA80E690E047DB88EE93E020EC73
:100C900033E0F9013197F1F70197D9F7F2DB8BE6F1
:100CA00090E03ADB90989198919A8AE090E020EC5D
:100CB00033E0F9013197F1F70197D9F79198949AB8
:100CC00080E293E020EC33E0F9013197F1F70197EE
:100CD000D9F71092B700DD24EE24FF24C0E0D0E065
:100CE000AA24BB2420E1C22E90EC892E93E0992EF9
:100CF0000894A11CB11C8FEFA8168FEFB80629F439
:100D000082B38C2582BBAA24BB248091B70083FFC9
:100D100011C09D9B0FC09C990DC082E7C5D97894E6
:100D20008091B700877F8093B7008091B700806182
:100D30008093B7008091AC00882309F467C0A1DBE1
:100D400087E061E096DB8091B60057DC8091CC00B3
:100D500054DC8091CD0051DC939A8091CF00863095
:100D600048F4D090CF00ED2DF0E0ED57FF4F80819B
:100D700080937E008091CC008093AD0080E061E0A4
:100D800078DB81E790E0C8DA8091AD0036DC8091B5
:100D9000AD0080FF11C083E161E06BDB81E3B9DA74
:100DA00091989098909A84E190E0F4013197F1F74E
:100DB0000197D9F7909810C083E161E05ADB80E396
:100DC000A8DA90989198919A84E190E0F401319793
:100DD000F1F70197D9F7919881E008DE81E00DDE07
:100DE0008C0180E060E045DB86E790E095DA1695BF
:100DF000079516950795C80182DD0093BA0086B362
:100E000080718093BD001092AC009398B0991CC083
:100E1000E0FC05C081E090E0E82AF92A13C02196A1
:100E2000CF31D10588F093E09D1540F0D394ED2D9E
:100E3000F0E0ED57FF4F808180937D008EEF9FEFB4
:100E4000E822F922C0E0D0E0B19952CFE1FC05C020
:100E500082E090E0E82AF92A23C02196CF31D1051B
:100E600008F446CFDD2041F0DA94ED2DF0E0ED57A7
:100E7000FF4F808180937D0080917D00843160F000
:100E800080917D00815080937D00969A80E061E0A2
:100E9000F0DA80917D005DDA8DEF9FEFE822F92294
:100EA000C0E0D0E025CF991B79E004C0991F9617C8
:100EB00008F0961B881F7A95C9F780950895AA1B9C
:100EC000BB1B51E107C0AA1FBB1FA617B70710F035
:100ED000A61BB70B881F991F5A95A9F78095909567
:100EE000BC01CD01089597FB092E07260AD077FD96
:100EF00004D0E5DF06D000201AF4709561957F4F8D
:100F00000895F6F7909581959F4F0895A1E21A2EC6
:100F1000AA1BBB1BFD010DC0AA1FBB1FEE1FFF1F9D
:100F2000A217B307E407F50720F0A21BB30BE40BED
:100F3000F50B661F771F881F991F1A9469F7609534
:100F40007095809590959B01AC01BD01CF010895EE
:100F500097FB092E05260ED057FD04D0D7DF0AD007
:100F6000001C38F450954095309521953F4F4F4FD8
:100F70005F4F0895F6F790958095709561957F4F36
:0A0F80008F4F9F4F0895F894FFCFA4
:100F8A00477574656E2054616700004F4720310031
:100F9A000053743A00004120000001140014162D79
:100FAA0001170A17212A323C4D4F004449004D4986
:100FBA0000444F00465200534100534F0088008BB3
:0C0FCA00008E009100940097009A000037
:00000001FF
