:1000000012C02CC02BC089C829C028C027C026C058
:1000100025C03AC823C022C021C020C01FC01EC0B6
:100020001DC068C01BC011241FBECFE5D4E0DEBFD9
:10003000CDBF10E0A0E6B0E0E6E2F5E102C0059039
:100040000D92AE3DB107D9F711E0AEEDB0E001C0C1
:100050001D92AB33B107E1F76DD863CAD1CF07C0AA
:10006000EFEBF3E03197F1F700C000000197009744
:10007000B9F70895CF93DF93D82FC0E009C0939AC2
:1000800082E390E0ECDF939884E690E0E8DFCF5FD6
:10009000CD17A8F39398DF91CF91089582B986B7D1
:1000A0008F7D86BF86B7856486BF8FEF80931F01E3
:1000B0007894109220011092210110922201109246
:1000C0002301109224011092250110922601109212
:1000D0002701109229011092280110922B011092F1
:1000E0002A0110922D0110922C0110922F011092D2
:1000F0002E0108951F920F920FB60F9211242F9385
:100100008F939F93EF93FF93A8951092B20021E0F5
:100110002093DE0081B190E0887F90708038910557
:10012000A1F0813891052CF48036910509F068C062
:1001300008C0883A9105B1F1883B910509F060C08B
:1001400031C08091E70081604BC083B19091E7009E
:1001500092609093E70090911F019F3F41F4883097
:1001600018F480931F013EC010921F013BC0909174
:100170001F01E0911F01F0E0ED5CFE4F80832093B2
:10018000DE0080911F018F5F80931F0180911F010E
:10019000883040F18FEF80931F0185E886BF209360
:1001A000DE0033C08091E70084608093E700809197
:1001B0001F018F3F11F410921F01E0911F01F0E029
:1001C000E05EFE4F808183B980911F018F5F809335
:1001D0001F0180911F01873040F48091E700886003
:1001E0008093E70085EC86BF10C08091E7008061B6
:1001F0008093E70085E886BF8FEF80931F0105C0DD
:1002000085EC86BF81E08093B200FF91EF919F91D2
:100210008F912F910F900FBE0F901F90189507C0D0
:10022000EFEBF3E03197F1F700C000000197009782
:10023000B9F70895009711F0C79A0895C7980895DF
:10024000C79828E030E087FF02C0C59A01C0C59872
:10025000C79A95E39A95F1F70000C798215030406E
:1002600011F0880FF0CF0895C69A81EC91E00197C4
:10027000F1F700C00000C6980895C59AF5DF82E442
:100280008A95F1F700C00895DBDFF7DF0895CF937B
:10029000DF93EC0101C0F8DF89918823E1F7DF915A
:1002A000CF910895DF93CF9300D0CDB7DEB71A82F8
:1002B0006AE0C7D8905D9983CE010196E8DF0F9080
:1002C0000F90CF91DF910895DF93CF9300D00F92DD
:1002D000CDB7DEB764E6B5D8892F1B822AE0622F3E
:1002E000B0D8905D9A83ADD8905D9983CE01019688
:1002F000CEDF0F900F900F90CF91DF9108950F9365
:100300001F93DF93CF93CDB7DEB728970FB6F8943E
:10031000DEBF0FBECDBF1886FE0138968E010F5F7F
:100320001F4F2AE030E0B90198D8805D8293CB015D
:10033000E017F107C1F7CE010196A9DF28960FB6A5
:10034000F894DEBF0FBECDBFCF91DF911F910F910B
:100350000895DF93CF9300D000D0CDB7DEB71C82D5
:100360002AE0622F6ED8905D9B836BD8905D9A8354
:1003700068D8905D9983CE01019689DF0F900F9028
:100380000F900F90CF91DF910895C5986DDF82E4B3
:100390008A95F1F700C008951F93DF93CF9300D0A3
:1003A000CDB7DEB7182F8FE295E70197F1F700C0C0
:1003B000000080E34A83698343DFE7DFEFE0F7E291
:1003C0003197F1F700C0000080E33ADFDEDFFAE1A9
:1003D000FA95F1F700C080E333DFD7DF85ED8A952A
:1003E000F1F70000812F2CDFD0DF88E029DFCDDF9F
:1003F00081E026DFCADFEFE9FFE03197F1F700C0C7
:1004000000006981862F1CDFC0DF8FE99FE0019724
:10041000F1F700C000004A81842F12DFB6DFEFE35E
:10042000FCE93197F1F700C000000F900F90CF91D9
:10043000DF911F91089582E003DFA7DF0895860F03
:10044000FFDEA3DF0895CF93C82F04C084E1F8DE58
:100450009CDFC150CC23D1F7CF910895CF93C82F03
:1004600004C080E1EDDE91DFC150CC23D1F7CF9104
:100470000895662311F4805801C08054E1DE85DFC1
:10048000089581E0DDDE81DF82E090E0C8DE82E079
:10049000D7DE7BDF82E090E0C2DE0895CF93DF936A
:1004A000C82F80E06C2FE5DFD4E180E2EDDED15093
:1004B000E1F780E06C2FDDDF82E090E0B0DEDF91DD
:1004C000CF910895CF92DF92EF92FF921F93CF9337
:1004D000DF93EA011A862A961AE02AE0C22ED12C6E
:1004E000E12CF12CA7019601DFD7605D6A93B90179
:1004F000CA011150B9F7DF91CF911F91FF90EF9092
:10050000DF90CF900895CF92DF92EF92FF921F93EA
:10051000CF93DF93FA01EA012B96138697FF0AC067
:100520002DE2208390958095709561957F4F8F4F38
:100530009F4F02C020E220831AE03AE0C32ED12C64
:10054000E12CF12CA7019601D1D7605D6A93B90126
:10055000CA011150B9F7DF91CF911F91FF90EF9031
:10056000DF90CF900895DB01FB01379617961C9220
:10057000179797FF06C02DE22C93909581959F4F7A
:1005800002C020E22C9346E02AE030E0B90179D79E
:10059000805D8293CB014150C9F70895DF93CF93DB
:1005A00000D00F92CDB7DEB7282F1B828F708A3014
:1005B00018F4805D8A8304C06AE043D79F5B9A8306
:1005C000822F82958F708A3018F4805D898304C0F1
:1005D0006AE037D79F5B9983CE01019658DE0F9072
:1005E0000F900F90CF91DF910895EF92FF920F93AC
:1005F0001F93CF93DF93EC01162F042FE22E8881F7
:100600008D3221F441DEF12E80E015C080E2FACF78
:10061000813031F0FE01EF0DF11D8081803339F022
:10062000FE01EF0DF11D80812FDE81E003C080E22D
:100630002BDE80E0FA94FF2059F78EE225DE10E0F1
:100640000E0D111D06C08C0F9D1FFC0180811CDE4C
:10065000F3948F2D90E080179107ACF3DF91CF9149
:100660001F910F91FF90EF900895DF93CF9300D0EB
:1006700000D000D0CDB7DEB7482F362F1E822AE03B
:10068000622FDFD6905D9D834A3020F0DAD6905DF0
:100690009C8302C080E38C838AE38B832AE0832FD0
:1006A000622FCFD6905D9A833A3020F0CAD6905D03
:1006B000998302C080E38983CE010196E8DD269606
:1006C0000FB6F894DEBF0FBECDBFCF91DF91089576
:1006D000DF93CF93CDB7DEB72E970FB6F894DEBF7A
:1006E0000FBECDBFFE013196AFECB0E09EE00D90A5
:1006F00001929150E1F7E82FF0E03197EE0FFF1FE4
:10070000EC0FFD1F81819281C2DD2E960FB6F89409
:10071000DEBF0FBECDBFCF91DF910895BF92CF92C4
:10072000DF92EF92FF920F931F93DF93CF93CDB79A
:10073000DEB760970FB6F894DEBF0FBECDBF68E09E
:10074000B62E6E010894C11CD11CD601EB2D1D9252
:10075000EA95E9F77C01EE0CFF1CEE0CFF1CE80E9D
:10076000F91E80E061E085DEC701C9DD8701C701B0
:10077000B601F9DEFE013996DF011D92BA94E9F760
:100780008FED8F878F818E878EE28D878E818C870C
:10079000BFEF0D391B0734F00436110544F480E235
:1007A0008B8710C0ECEF09311E074CF004C0F3E05A
:1007B000083E1F0724F48D818B8780E203C08D8162
:1007C0008B878C818A8789818987CE0109965FDD35
:1007D00060960FB6F894DEBF0FBECDBFCF91DF910C
:1007E0001F910F91FF90EF90DF90CF90BF900895F1
:1007F000FF920F931F93DF93CF93CDB7DEB72E9762
:100800000FB6F894DEBF0FBECDBFF7E0FF2EBE01DE
:100810006F5F7F4FDB01EF2D1D92EA95E9F78C01A9
:10082000000F111F000F111F080F191FC8019BDEB9
:10083000FE013896DF011D92FA94E9F78FED8D875E
:100840008F818C878EE28B878E818A87BFEF0D39EF
:100850001B072CF00436110514F480E201C08D81D1
:10086000898789818887CE01089611DD82E090E032
:10087000D6DC2E960FB6F894DEBF0FBECDBFCF915B
:10088000DF911F910F91FF9008950F931F93DF93B6
:10089000CF93CDB7DEB760970FB6F894DEBF0FBE2B
:1008A000CDBFFE01389628E0DF011D922A95E9F7B9
:1008B0008C01000F111F000F111F080F191F085C7A
:1008C000104017FD02C020E201C02DE2C801BE01A8
:1008D000685F7F4F288B47DEFE01319687E0DF019E
:1008E0001D928A95E9F78FED8E838E858D838EE23A
:1008F0008C838D858B830D591F4F2889073C1105EB
:1009000020F42A8380E2898303C08C858A8329832B
:10091000CE010196BCDC82E090E081DC60960FB6EF
:10092000F894DEBF0FBECDBFCF91DF911F910F9125
:100930000895DF93CF9300D00F92CDB7DEB795E83F
:1009400096B987B93E9A369A3699FECF369A369935
:10095000FECF74B165B184B195B13798880F880F17
:1009600090E00F900F900F90CF91DF91089595E850
:1009700096B987B9369A3699FECF089597B1982BD4
:1009800097B944E020E030E0369A3699FECF84B142
:1009900095B1280F391F4150B9F7369527953695EF
:1009A0002795C90108953798089595E896B987B9AC
:1009B0003E9A369A3699FECF44E020E030E0369AEF
:1009C0003699FECF84B195B1280F391F4150B9F740
:1009D00037983695279536952795C901089522E0D1
:1009E00004C0922F9A95F1F781508823D1F708958A
:1009F00081E0B29B80E00895CF93C298BA9A89EEC5
:100A0000EEDF89EEECDFBA98C29A85E3E8DFF0DF2B
:100A1000C82F89EEE4DFC13031F0EADF91E08823AE
:100A200019F090E001C091E0892FCF910895CF9304
:100A3000C82FC298BA9A81E0D2DFCC2311F0C29AB3
:100A400001C0C298BA9A86E2CADFBA98C29A82E016
:100A5000C6DFC298BA9A81E0C2DFBA98C29A87E02C
:100A6000BEDFC6DFC82F86E2BADF8C2FCF91089594
:100A7000CF93C82FC298BA9A81E0B1DFCC2311F08E
:100A8000BA98C29A87E0ABDFB3DFC82F82E3A7DF53
:100A9000BA98C29A8C2FCF910895CF93DF93C82F25
:100AA000D8E08C2F8170E4DFC6958111C068D150E9
:100AB000C1F78C2FDF91CF9108958FEFEEDF08956E
:100AC000DF92EF92FF920F931F93CF93DF93182F34
:100AD000EB0192DF882369F580EFDFDFEE2400E48D
:100AE00028EFD22ED00E81E0C3DFF82E81E0C0DFE8
:100AF000882319F0FF2069F01FC0FF2051F401176F
:100B000028F0888180FF05C0101719F0E02EFF241F
:100B1000F3948F2DADDF888186958883FF2011F0B7
:100B20008068888301500D15F1F6002339F0219675
:100B3000D7CFEE24EA9402C09EEFE92E8E2DDF91EE
:100B4000CF911F910F91FF90EF90DF9008950F9339
:100B50001F93CF93DF93182FEB014EDF209741F0C7
:100B600085E59BDF08E0899198DF0150E1F702C03D
:100B70008CEC93DF812F91DFDF91CF911F910F914B
:100B800008950F931F93CF93DF93FB01DA01E801E0
:100B9000408150E0718160E0462B572B803171F429
:100BA000BA016E7F13E0660F771F1A95E1F7968101
:100BB0004CE050E0491B5109460F571F57FF06C034
:100BC00091E09C93509541955F4F01C01C928832F3
:100BD00089F4848190E0BC016076707060367105A4
:100BE00049F086FF02C04E7F05C085FF02C04C7FE2
:100BF00001C0487FCA0154E0969587955A95E1F760
:100C0000F90180834F704883DF91CF911F910F913D
:100C10000895282F982F990F980F990F892F8B5F80
:100C20002D3008F08D5F6AE00CD408950F931F9368
:100C3000CF93DF938C01EB01F8018081BE0140DF8F
:100C4000F801808381508D3F28F48881883211F02B
:100C5000803191F7DF91CF911F910F910895CF933C
:100C6000DF93EC01C9DEC4DE882329F084E4BE01F1
:100C70006EDF80E001C082E0DF91CF9108950F9395
:100C80001F93CF93DF93EC018B01B6DEB1DE882397
:100C900061F08EEBBE015BDFC02FD12F19E00DDFBD
:100CA00089931150E1F780E001C081E0DF91CF919D
:100CB0001F910F910895282F392FF90120E030E07E
:100CC00080E0A8E112C0419198E0542F5827B52F39
:100CD000B17050FD8A278695B13009F48068915033
:100CE00011F04695F2CF2F5F3F4F2617370759F780
:100CF00008956F927F928F929F92AF92BF92CF9200
:100D0000DF92EF92FF920F931F93DF93CF93CDB7B4
:100D1000DEB729970FB6F894DEBF0FBECDBF7C01BA
:100D20004B013A01590168DE8EEBB70110DF8E01ED
:100D30000F5F1F4F8AE0C82ED12CCC0EDD1EBDDE0A
:100D4000F80181938F01EC15FD05C9F78E010F5F46
:100D50001F4FC80169E070E0AEDF882349F4F70156
:100D60008081B801A401930185010BDF80E001C0FF
:100D700083E029960FB6F894DEBF0FBECDBFCF91AA
:100D8000DF911F910F91FF90EF90DF90CF90BF9078
:100D9000AF909F908F907F906F90089510921E015A
:100DA00080E090E05CDF882319F081E080931E01F1
:100DB00008958F929F92AF92BF92CF92DF92FF924F
:100DC0000F931F93DF93CF9300D00F92CDB7DEB771
:100DD000FF2442E0A42EB12CAC0EBD1E33E0832EC6
:100DE000912C8C0E9D1E6E010894C11CD11C2DC02F
:100DF000C80123E0880F991F2A95E1F78A509F4F79
:100E0000B601A501940175DF000F111F8823B9F405
:100E10008B81FFDE2A819AE0299F90011124280FFF
:100E2000311DF801E751FF4F3183208389818823E9
:100E300059F0309521953F4F3183208305C00751EC
:100E40001F4FF80111821082F3940F2D10E0809152
:100E5000E800992787FD9095081719074CF20F9025
:100E60000F900F90CF91DF911F910F91FF90DF9026
:100E7000CF90BF90AF909F908F9008951F93CF9386
:100E8000DF93C82FD0E0CC0FDD1F10E009C0909A8F
:100E900082E090E0E4D8909882E090E0E0D81F5F94
:100EA000812F90E08C179D0794F39098DF91CF915C
:100EB0001F9108958632C0F08E32C0F08633C0F0A4
:100EC0008834C0F08F35C0F08337C0F08B39C0F064
:100ED0008A3BC0F08D3CC0F0813EC0F08B3EC0F03C
:100EE000853FC0F48CE0089581E0089582E0089584
:100EF00083E0089584E0089585E0089586E00895EC
:100F000087E0089588E0089589E008958AE00895CB
:100F100080E008958FEF089507C0EFEBF3E031977D
:100F2000F1F700C0000001970097B9F70895889A7B
:100F3000899A8A9A8B9A8C9A8D9A8E9A8F9A909A7D
:100F400088EC90E0E9DF9098B898C09AB998C19A77
:100F5000BD9ABE9ABF9AA498AC9AA598AD9A1092E1
:100F6000F4008091F40088608093F400A098A19828
:100F7000A298A39808959F92AF92BF92CF92DF92CA
:100F8000EF92FF920F931F93DF93CF93CDB7DEB70E
:100F900029970FB6F894DEBF0FBECDBF2DDD8FEFC2
:100FA000898300E010E0E2E0EE2EF12CEC0EFD1E55
:100FB0006E010894C11CD11C7AE0A72EB12CAC0E96
:100FC000BD1E2EC0C601B70131DE89818F3F61F49D
:100FD00080E061E04EDA80E690E059D980E293E06B
:100FE0009BDF81E05BDA23C08E3F39F480E061E073
:100FF00040DA81E790E04BD91AC084E061E039DA49
:10100000D701F80163E0EE0FFF1F6A95E1F7EA50A0
:10101000FF4F8D918193AA15BB05D9F70F5F1F4F25
:10102000902E8981882319F00530110559F6892DF4
:1010300029960FB6F894DEBF0FBECDBFCF91DF91DA
:101040001F910F91FF90EF90DF90CF90BF90AF90E6
:101050009F90089583B7836083BF88B7816088BFFE
:1010600089B7816089BF12BE089595B5936095BD1B
:1010700095B5986095BD98B7906498BF99B79068FA
:1010800099BF14BC83BD08951F920F920FB60F92A3
:1010900011242F933F934F935F936F937F938F937D
:1010A0009F93AF93BF93EF93FF938091E50090914F
:1010B000E60001969093E6008093E5008091DF00C2
:1010C0009091E00001969093E0008093DF00809182
:1010D000DF009091E0008330910571F48091B200BF
:1010E000882331F08091AF00C0DF9699979A959A46
:1010F0001092E0001092DF00FF91EF91BF91AF914D
:101100009F918F917F916F915F914F913F912F911F
:101110000F900FBE0F901F9018951F920F920FB651
:101120000F92112415BC979895980F900FBE0F90B1
:101130001F9018958F929F92AF92BF92CF92DF929D
:10114000EF92FF920F931F93CF93DF93F0DE88E32C
:1011500066E04CE021D98CE790E099D888EE93E0E6
:10116000DBDE8FD987E890E092D890989198919A99
:101170008AE090E0D1DE9198949A80E293E0CCDE10
:101180003BDCF9DE8093E80084E690E0C5DE80E099
:1011900060E06FD98EE890E07AD88091E800FED9BF
:1011A0008091E80018161CF481E078D9F7DD1092E0
:1011B000EA001092E9001092EC001092EB001092FD
:1011C000EE001092ED001092F0001092EF001092DD
:1011D000F2001092F10088EE93E09EDE80E05ED98E
:1011E000EE24FF24CC24DD24C0E0D0E000E010E0B9
:1011F0009924A0E18A2EFAE0AF2EB12C0894C11CEC
:10120000D11C2FEFC2162FEED20629F482B3882507
:1012100082BBCC24DD240894E11CF11C8FEFE8167E
:101220008FEEF80671F48091F30090E08370907077
:10123000009719F0969A979A02C096989798EE247C
:10124000FF248091F40083FF11C09D9B0FC09C99E7
:101250000DC082E723D778948091F400877F809334
:10126000F4008091F40080618093F4008091F30099
:1012700090E0837090708130910531F0823091055B
:1012800031F0009759F408C0F7FE0AC005C020E00D
:10129000E21620EEF20620F0979802C097989698F2
:1012A0008091DE00882309F48BC078DD80E293E032
:1012B00033DE7FDD80E061E0DCD88AE990E0E7D7CB
:1012C0008091E9009091EA0023E0883E920764F063
:1012D00083E061E0CED88091E9009091EA00B50109
:1012E000D0D0862F36D80BC082E061E0C2D8809182
:1012F000E9009091EA00B501C4D0862FE5D78EE2CF
:10130000C3D78091E9009091EA00B501BAD0CAD75D
:101310008091E9009091EA00B501B3D0660F609327
:101320002101853091052CF0809121018F5F809300
:10133000210180913601863048F490903601E92DE4
:10134000F0E0EB54FF4F80818093B0008091330137
:101350008093F50080E161E08CD883EA90E097D734
:101360008091F50080FF0DC083E161E082D881E3C8
:101370008BD791989098909A84E190E0CDDD9098E9
:101380000CC083E161E075D880E37ED79098919896
:10139000919A84E190E0C0DD91988091340180932E
:1013A000F30087E061E065D888EA90E070D780912B
:1013B000F300F4D886B38071809324011092DE008C
:1013C000B09916C000FD02C0016010C02196CF3157
:1013D000D10570F0892D843040F49394E92DF0E02C
:1013E000EB54FF4F80818093AF000E7FC0E0D0E0D0
:1013F000B19904CF01FD02C0026020C02196CF3117
:10140000D10508F4FBCE992041F09A94E92DF0E043
:10141000EB54FF4F80818093AF008091AF00843107
:1014200060F08091AF0081508093AF00969A80E089
:1014300061E01FD88091AF0047D70D7FC0E0D0E0BA
:10144000DDCE991B79E004C0991F961708F0961B12
:10145000881F7A95C9F780950895AA1BBB1B51E197
:1014600007C0AA1FBB1FA617B70710F0A61BB70B14
:10147000881F991F5A95A9F780959095BC01CD01B9
:10148000089597FB092E07260AD077FD04D0E5DFE3
:1014900006D000201AF4709561957F4F0895F6F7F5
:1014A000909581959F4F0895A1E21A2EAA1BBB1B10
:1014B000FD010DC0AA1FBB1FEE1FFF1FA217B30720
:1014C000E407F50720F0A21BB30BE40BF50B661F36
:1014D000771F881F991F1A9469F7609570958095FA
:1014E00090959B01AC01BD01CF01089597FB092E9A
:1014F00005260ED057FD04D0D7DF0AD0001C38F4E3
:1015000050954095309521953F4F4F4F5F4F08952F
:10151000F6F790958095709561957F4F8F4F9F4F0F
:061520000895F894FFCFCE
:101526004E6F2053656E736F7220666F756E640022
:1015360000427573204572726F72000047757465BC
:101546006E205461670000524541445900005365BE
:101556006E736F72656E3A200000493A2020202093
:1015660020000053743A0000523A0000011400149F
:10157600162D01170A17212A323C4D4F0044490007
:101586004D4900444F00465200534100534F00BAA4
:0E15960000BD00C000C300C600C900CC0000AC
:00000001FF
